:02000000F029E5
:100006007B15FB1F0D280130F300F201F101F00111
:08001600FA0DF20CFF300800A6
:0E001E00F201F101F001F801F30100300800D9
:10002C00FB14FB1F2028FF30F300F200F100F0005E
:08003C00FA0DF20CFF30080080
:08004400FA1FF213003008005E
:0E004C008312031322088A0021088200080094
:10005A007C186328FC1834287C1982282D28A001D2
:10006A007208031D54287108F2007008F10078081C
:10007A00F000F801A0157208031D54287108F20057
:10008A007008F100F001A01120167208031D54280F
:10009A007108F200F101A0157208031976282008E8
:1000AA00F302031D031C7A280310F21B6328F80DC0
:1000BA00F00DF10DF20DF30B5A287A287B1B701CF8
:1000CA007E28F81F7E28F00A0319F10A0319F20A9A
:1000DA00031D7E28F20CF10CF00CF30A0319822896
:1000EA007E280130FC000F2085280230FC00032006
:1000FA0085280430FC00222085280830FC001620C0
:04010A0000000800E9
:10010E000E3083120313FD00FD0B8B280000080038
:10011E00A0017208031DA4287108F2007008F100F6
:10012E00F001A0157208031DA4287108F200F10158
:10013E00A011201672080319B2282008F302031D1D
:10014E00031CB6280310F21BBA28F00DF10DF20DA8
:10015E00F30BAA28B6280130FC000F20BD28023070
:0E016E00FC000320BD280430FC002220080005
:10017C0026208A110A128000840AA10A0319A20AF5
:08018C00F003031DBE2808006A
:100194008312031372087606A000F801F9017308AC
:1001A4007702031CED287708FD007308F7007D082B
:1001B400F3007608FD007208F6007D08F200750869
:1001C400FD007108F5007D08F1007408FD00700859
:1001D400F4007D08F0007708031966297208FA0014
:1001E400F217F61777087302F7000319202908306D
:1001F4007702031C1629F7007408F9007508F40047
:100204007608F500F60108307702031C1629F7007A
:100214007408F9007508F400F50108307702031C2E
:1002240016297A08F2006629770803192029031091
:10023400F60CF50CF40CF90CF70B1929A01F2D2959
:10024400F909F409F509F609F90A0319F40A031975
:10025400F50A0319F60A7908F80774080318740FE5
:10026400F00775080318750FF10776080318760F61
:10027400F207A01B4629031C5629F20CF10CF00CC2
:10028400F80CF30F5629622903185A29F809F009C2
:10029400F109F209F80A0319F00A0319F10A03191A
:1002A400F20A8030FA065E290130FC002D2068290C
:1002B4000230FC002D2068290430FC008F206829BE
:1002C4000830FC00162068290030FC0000000800FB
:1002D400831203139F01C0309F0483161F179F17B7
:1002E40083122A08F000F00D7010F00D7010F00D5C
:1002F400701070089F041F1487201F151F1D842968
:10030400000080291F101E08F100F00183161E084A
:08031400F0040030F1040800C0
:10031C0083120313FA017308031D7A147708031D63
:10032C00FA147A080319DA29033A0319A5297A1859
:10033C00A229F61FD829D629F21FD629D829720846
:10034C008039FA00F21376088039F6137A0603190D
:10035C00B3297A080319D629D82977087302031907
:10036C00BA29031CCE29D229760872020319C12995
:10037C00031CCE29D229750871020319C829031C44
:10038C00CE29D229740870020319DA290318D2294C
:10039C00FA080319D829D629FA080319D629D82915
:1003AC0003140800031008000314031508000800C8
:1003BC00FF3083120313A300FF30A400FF30A5000D
:1003CC00FF309F01C0309F0483161F179F178312A5
:0403DC001F140800E2
:1003E000DE218316870186018312A601A701A801D9
:1003F000A9010030F4000030F5007A30F6008830B2
:10040000F7002608F0002708F1002808F200290864
:10041000F3008E21013003180030F000700803193A
:100420002F2A0130AA006A2183122608F00027082B
:10043000F1002808F2002908F3001730F400B73063
:10044000F5005130F6007030F700CA207008A600A1
:100450007108A7007208A8007308A900F9292F2ABB
:02400E004A2F37
:00000001FF
